{
  "address": "0xcff09eADc2877228a78B8ca6c1f3c133439C847D",
  "abi": [
    {
      "inputs": [],
      "stateMutability": "nonpayable",
      "type": "constructor"
    },
    {
      "anonymous": false,
      "inputs": [
        {
          "indexed": true,
          "internalType": "uint256",
          "name": "flashloanAmount",
          "type": "uint256"
        },
        {
          "indexed": true,
          "internalType": "uint256",
          "name": "amountOutMin",
          "type": "uint256"
        },
        {
          "components": [
            {
              "internalType": "address",
              "name": "router",
              "type": "address"
            },
            {
              "internalType": "address[]",
              "name": "tokens",
              "type": "address[]"
            }
          ],
          "indexed": false,
          "internalType": "struct Route.SinglePath[]",
          "name": "route",
          "type": "tuple[]"
        }
      ],
      "name": "ArbitrageMade",
      "type": "event"
    },
    {
      "anonymous": false,
      "inputs": [
        {
          "indexed": true,
          "internalType": "address",
          "name": "token",
          "type": "address"
        },
        {
          "indexed": true,
          "internalType": "address",
          "name": "receiver",
          "type": "address"
        },
        {
          "indexed": false,
          "internalType": "uint256",
          "name": "amount",
          "type": "uint256"
        }
      ],
      "name": "ClaimedProfit",
      "type": "event"
    },
    {
      "anonymous": false,
      "inputs": [
        {
          "indexed": true,
          "internalType": "address",
          "name": "flashloan",
          "type": "address"
        }
      ],
      "name": "FlashloanSet",
      "type": "event"
    },
    {
      "anonymous": false,
      "inputs": [
        {
          "indexed": true,
          "internalType": "address",
          "name": "flashloan",
          "type": "address"
        }
      ],
      "name": "Init",
      "type": "event"
    },
    {
      "anonymous": false,
      "inputs": [
        {
          "indexed": false,
          "internalType": "uint8",
          "name": "version",
          "type": "uint8"
        }
      ],
      "name": "Initialized",
      "type": "event"
    },
    {
      "anonymous": false,
      "inputs": [
        {
          "indexed": true,
          "internalType": "address",
          "name": "previousOwner",
          "type": "address"
        },
        {
          "indexed": true,
          "internalType": "address",
          "name": "newOwner",
          "type": "address"
        }
      ],
      "name": "OwnershipTransferred",
      "type": "event"
    },
    {
      "inputs": [],
      "name": "ADDRESS_ZERO",
      "outputs": [
        {
          "internalType": "string",
          "name": "",
          "type": "string"
        }
      ],
      "stateMutability": "view",
      "type": "function"
    },
    {
      "inputs": [],
      "name": "DUPLICATE",
      "outputs": [
        {
          "internalType": "string",
          "name": "",
          "type": "string"
        }
      ],
      "stateMutability": "view",
      "type": "function"
    },
    {
      "inputs": [],
      "name": "NOTHING_TO_CLAIM",
      "outputs": [
        {
          "internalType": "string",
          "name": "",
          "type": "string"
        }
      ],
      "stateMutability": "view",
      "type": "function"
    },
    {
      "inputs": [
        {
          "internalType": "address",
          "name": "token",
          "type": "address"
        }
      ],
      "name": "claimProfit",
      "outputs": [],
      "stateMutability": "nonpayable",
      "type": "function"
    },
    {
      "inputs": [],
      "name": "flashloan",
      "outputs": [
        {
          "internalType": "address",
          "name": "",
          "type": "address"
        }
      ],
      "stateMutability": "view",
      "type": "function"
    },
    {
      "inputs": [
        {
          "internalType": "address",
          "name": "_flashloan",
          "type": "address"
        }
      ],
      "name": "init",
      "outputs": [],
      "stateMutability": "nonpayable",
      "type": "function"
    },
    {
      "inputs": [
        {
          "internalType": "bool",
          "name": "exactDebt",
          "type": "bool"
        },
        {
          "internalType": "uint256",
          "name": "flashloanAmount",
          "type": "uint256"
        },
        {
          "internalType": "uint256",
          "name": "amountOutMin",
          "type": "uint256"
        },
        {
          "components": [
            {
              "internalType": "address",
              "name": "router",
              "type": "address"
            },
            {
              "internalType": "address[]",
              "name": "tokens",
              "type": "address[]"
            }
          ],
          "internalType": "struct Route.SinglePath[]",
          "name": "route",
          "type": "tuple[]"
        }
      ],
      "name": "makeArbitrage",
      "outputs": [
        {
          "internalType": "uint256",
          "name": "profit",
          "type": "uint256"
        }
      ],
      "stateMutability": "nonpayable",
      "type": "function"
    },
    {
      "inputs": [],
      "name": "owner",
      "outputs": [
        {
          "internalType": "address",
          "name": "",
          "type": "address"
        }
      ],
      "stateMutability": "view",
      "type": "function"
    },
    {
      "inputs": [],
      "name": "renounceOwnership",
      "outputs": [],
      "stateMutability": "nonpayable",
      "type": "function"
    },
    {
      "inputs": [
        {
          "internalType": "address",
          "name": "_flashloan",
          "type": "address"
        }
      ],
      "name": "resetFlashloan",
      "outputs": [],
      "stateMutability": "nonpayable",
      "type": "function"
    },
    {
      "inputs": [
        {
          "internalType": "address",
          "name": "newOwner",
          "type": "address"
        }
      ],
      "name": "transferOwnership",
      "outputs": [],
      "stateMutability": "nonpayable",
      "type": "function"
    }
  ],
  "transactionHash": "0x02d3a59109dfbfe758e13c1d61adc122047b9f655d3bad96d46e8d4ed1069043",
  "args": [],
  "numDeployments": 1,
  "solcInputHash": "c85d464d7d3a73606ab46fb77a4201a1",
  "bytecode": "0x608060405234801561001057600080fd5b5061001961001e565b6100dd565b600054610100900460ff161561008a5760405162461bcd60e51b815260206004820152602760248201527f496e697469616c697a61626c653a20636f6e747261637420697320696e697469604482015266616c697a696e6760c81b606482015260840160405180910390fd5b60005460ff908116146100db576000805460ff191660ff9081179091556040519081527f7f26b83ff96e1f2b6a682f133852f6798a09c465da95921460cefb38474024989060200160405180910390a15b565b61150f806100ec6000396000f3fe608060405234801561001057600080fd5b50600436106100a95760003560e01c8063769147291161007157806376914729146101465780638da5cb5b14610175578063ae4c51b314610186578063c0ab44f6146101ae578063d01cad07146101c1578063f2fde38b146101e257600080fd5b806319ab453c146100ae5780631b89b61a146100c3578063399c15e3146100f357806366e7950914610106578063715018a61461013e575b600080fd5b6100c16100bc366004610f74565b6101f5565b005b6065546100d6906001600160a01b031681565b6040516001600160a01b0390911681526020015b60405180910390f35b6100c1610101366004610f74565b6103a7565b6101316040518060400160405280600c81526020016b41646472657373207a65726f60a01b81525081565b6040516100ea9190610fe6565b6100c1610494565b6101316040518060400160405280601081526020016f4e6f7468696e6720746f20636c61696d60801b81525081565b6033546001600160a01b03166100d6565b610131604051806040016040528060098152602001684475706c696361746560b81b81525081565b6100c16101bc366004610f74565b6104a8565b6101d46101cf366004611007565b610603565b6040519081526020016100ea565b6100c16101f0366004610f74565b6106eb565b600054610100900460ff16158080156102155750600054600160ff909116105b8061022f5750303b15801561022f575060005460ff166001145b6102975760405162461bcd60e51b815260206004820152602e60248201527f496e697469616c697a61626c653a20636f6e747261637420697320616c72656160448201526d191e481a5b9a5d1a585b1a5e995960921b60648201526084015b60405180910390fd5b6000805460ff1916600117905580156102ba576000805461ff0019166101001790555b60408051808201909152600c81526b41646472657373207a65726f60a01b60208201526001600160a01b0383166103045760405162461bcd60e51b815260040161028e9190610fe6565b50606580546001600160a01b0319166001600160a01b03841617905561032933610764565b6040516001600160a01b038316907f4f8cfde3439a1a302c21ca51eec26086efbfd940b8c0279889fc6bb6e73ecc6690600090a280156103a3576000805461ff0019169055604051600181527f7f26b83ff96e1f2b6a682f133852f6798a09c465da95921460cefb38474024989060200160405180910390a15b5050565b6103af6107b6565b60408051808201909152600c81526b41646472657373207a65726f60a01b60208201526001600160a01b0382166103f95760405162461bcd60e51b815260040161028e9190610fe6565b506065546040805180820190915260098152684475706c696361746560b81b6020820152906001600160a01b038381169116036104495760405162461bcd60e51b815260040161028e9190610fe6565b50606580546001600160a01b0319166001600160a01b0383169081179091556040517f51ad0c1cbc5e6f082bc559da60473634ae0d0e6f97803130034fe6c58637184c90600090a250565b61049c6107b6565b6104a66000610764565b565b6104b06107b6565b60408051808201909152600c81526b41646472657373207a65726f60a01b60208201526001600160a01b0382166104fa5760405162461bcd60e51b815260040161028e9190610fe6565b506040516370a0823160e01b81523060048201526000906001600160a01b038316906370a0823190602401602060405180830381865afa158015610542573d6000803e3d6000fd5b505050506040513d601f19601f8201168201806040525081019061056691906110a0565b60408051808201909152601081526f4e6f7468696e6720746f20636c61696d60801b6020820152909150816105ae5760405162461bcd60e51b815260040161028e9190610fe6565b5060405181815233906001600160a01b038416907f8c4ecc5bca30094e8195760a5af84ffd904b23f8cbfb6b69f2a20d471e66fdcb9060200160405180910390a36103a36001600160a01b0383163383610810565b600061060d6107b6565b61061f61061a838561114d565b610867565b6065546001600160a01b031663d91af02f876106458888610640888a61114d565b610a3b565b6040518363ffffffff1660e01b8152600401610662929190611266565b6020604051808303816000875af1158015610681573d6000803e3d6000fd5b505050506040513d601f19601f820116820180604052508101906106a591906110a0565b905083857fdea23762a24570ed22839a52cc76107da1a7219871ed14bae69b8b003fbe987685856040516106da929190611281565b60405180910390a395945050505050565b6106f36107b6565b6001600160a01b0381166107585760405162461bcd60e51b815260206004820152602660248201527f4f776e61626c653a206e6577206f776e657220697320746865207a65726f206160448201526564647265737360d01b606482015260840161028e565b61076181610764565b50565b603380546001600160a01b038381166001600160a01b0319831681179093556040519116919082907f8be0079c531659141344cd1fd0a4f28419497f9722a3daafe3b4186f6b6457e090600090a35050565b6033546001600160a01b031633146104a65760405162461bcd60e51b815260206004820181905260248201527f4f776e61626c653a2063616c6c6572206973206e6f7420746865206f776e6572604482015260640161028e565b604080516001600160a01b038416602482015260448082018490528251808303909101815260649091019091526020810180516001600160e01b031663a9059cbb60e01b179052610862908490610a6a565b505050565b805160408051808201909152600b81526a24b73b30b634b2103632b760a91b6020820152906108a95760405162461bcd60e51b815260040161028e9190610fe6565b506108cf816000815181106108c0576108c0611383565b60200260200101516000610b3f565b60015b81518110156109cf576108fe8282815181106108f0576108f0611383565b602002602001015182610b3f565b61092a8261090d6001846113af565b8151811061091d5761091d611383565b6020026020010151610ccd565b6001600160a01b031682828151811061094557610945611383565b60200260200101516020015160008151811061096357610963611383565b60200260200101516001600160a01b03161460405180604001604052806012815260200171496e636f6e73697374656e7420726f75746560701b815250906109be5760405162461bcd60e51b815260040161028e9190610fe6565b506109c8816113c8565b90506108d2565b506000806109dc83610d02565b91509150806001600160a01b0316826001600160a01b031614604051806040016040528060098152602001684e6f74206379636c6560b81b81525090610a355760405162461bcd60e51b815260040161028e9190610fe6565b50505050565b6060838383604051602001610a52939291906113e1565b60405160208183030381529060405290509392505050565b6000610abf826040518060400160405280602081526020017f5361666545524332303a206c6f772d6c6576656c2063616c6c206661696c6564815250856001600160a01b0316610dc89092919063ffffffff16565b9050805160001480610ae0575080806020019051810190610ae091906114a0565b6108625760405162461bcd60e51b815260206004820152602a60248201527f5361666545524332303a204552433230206f7065726174696f6e20646964206e6044820152691bdd081cdd58d8d9595960b21b606482015260840161028e565b80600003610b99578160200151516002146040518060400160405280600c81526020016b092dcecc2d8d2c840e0c2e8d60a31b81525090610b935760405162461bcd60e51b815260040161028e9190610fe6565b50610be8565b600282602001515110156040518060400160405280600c81526020016b092dcecc2d8d2c840e0c2e8d60a31b81525090610be65760405162461bcd60e51b815260040161028e9190610fe6565b505b815160408051808201909152600c81526b5a65726f206164647265737360a01b6020820152906001600160a01b0316610c345760405162461bcd60e51b815260040161028e9190610fe6565b5060005b8260200151518110156108625760006001600160a01b031683602001518281518110610c6657610c66611383565b60200260200101516001600160a01b031614156040518060400160405280600c81526020016b5a65726f206164647265737360a01b81525090610cbc5760405162461bcd60e51b815260040161028e9190610fe6565b50610cc6816113c8565b9050610c38565b60208101518051600091610ce26001836113af565b81518110610cf257610cf2611383565b6020026020010151915050919050565b805160009081908184610d166001846113af565b81518110610d2657610d26611383565b60200260200101516020015151905084600081518110610d4857610d48611383565b602002602001015160200151600081518110610d6657610d66611383565b602002602001015185600184610d7c91906113af565b81518110610d8c57610d8c611383565b602002602001015160200151600183610da591906113af565b81518110610db557610db5611383565b6020026020010151935093505050915091565b6060610dd78484600085610ddf565b949350505050565b606082471015610e405760405162461bcd60e51b815260206004820152602660248201527f416464726573733a20696e73756666696369656e742062616c616e636520666f6044820152651c8818d85b1b60d21b606482015260840161028e565b600080866001600160a01b03168587604051610e5c91906114bd565b60006040518083038185875af1925050503d8060008114610e99576040519150601f19603f3d011682016040523d82523d6000602084013e610e9e565b606091505b5091509150610eaf87838387610eba565b979650505050505050565b60608315610f29578251600003610f22576001600160a01b0385163b610f225760405162461bcd60e51b815260206004820152601d60248201527f416464726573733a2063616c6c20746f206e6f6e2d636f6e7472616374000000604482015260640161028e565b5081610dd7565b610dd78383815115610f3e5781518083602001fd5b8060405162461bcd60e51b815260040161028e9190610fe6565b80356001600160a01b0381168114610f6f57600080fd5b919050565b600060208284031215610f8657600080fd5b610f8f82610f58565b9392505050565b60005b83811015610fb1578181015183820152602001610f99565b50506000910152565b60008151808452610fd2816020860160208601610f96565b601f01601f19169290920160200192915050565b602081526000610f8f6020830184610fba565b801515811461076157600080fd5b60008060008060006080868803121561101f57600080fd5b853561102a81610ff9565b94506020860135935060408601359250606086013567ffffffffffffffff8082111561105557600080fd5b818801915088601f83011261106957600080fd5b81358181111561107857600080fd5b8960208260051b850101111561108d57600080fd5b9699959850939650602001949392505050565b6000602082840312156110b257600080fd5b5051919050565b634e487b7160e01b600052604160045260246000fd5b6040805190810167ffffffffffffffff811182821017156110f2576110f26110b9565b60405290565b604051601f8201601f1916810167ffffffffffffffff81118282101715611121576111216110b9565b604052919050565b600067ffffffffffffffff821115611143576111436110b9565b5060051b60200190565b600061116061115b84611129565b6110f8565b83815260208082019190600586811b86013681111561117e57600080fd5b865b8181101561125957803567ffffffffffffffff808211156111a15760008081fd5b818a019150604082360312156111b75760008081fd5b6111bf6110cf565b6111c883610f58565b815286830135828111156111dc5760008081fd5b929092019136601f8401126111f357600091508182fd5b8235915061120361115b83611129565b82815291861b830187019187810190368411156112205760008081fd5b938801935b838510156112455761123685610f58565b82529388019390880190611225565b828901525088525050948301948301611180565b5092979650505050505050565b8215158152604060208201526000610dd76040830184610fba565b60208082528181018390526000906040808401600586811b8601830188865b8981101561137457888303603f190185528135368c9003603e190181126112c657600080fd5b8b018387016001600160a01b03806112dd84610f58565b16865289830135601e198436030181126112f657600080fd5b90920189810192903567ffffffffffffffff81111561131457600080fd5b80881b360384131561132557600080fd5b868b018a905291829052600091606087015b8184101561135e578261134986610f58565b168152938b0193600193909301928b01611337565b988b0198965050509288019250506001016112a0565b50909998505050505050505050565b634e487b7160e01b600052603260045260246000fd5b634e487b7160e01b600052601160045260246000fd5b818103818111156113c2576113c2611399565b92915050565b6000600182016113da576113da611399565b5060010190565b60006060808301868452602086818601526040838187015282875180855260808801915060808160051b89010194508389016000805b8381101561148e578a8803607f19018552825180516001600160a01b039081168a5290880151888a018890528051888b018190529089019184918c8c01905b8084101561147857845183168252938b019360019390930192908b0190611456565b509a505050948701945091860191600101611417565b50959c9b505050505050505050505050565b6000602082840312156114b257600080fd5b8151610f8f81610ff9565b600082516114cf818460208701610f96565b919091019291505056fea264697066735822122055b6b6f77539ce2094d35ffe64eba4efb7b8ff905731840ca0ec6c227c3abc7764736f6c63430008120033",
  "devdoc": {
    "events": {
      "Initialized(uint8)": {
        "details": "Triggered when the contract has been initialized or reinitialized."
      }
    },
    "kind": "dev",
    "methods": {
      "owner()": {
        "details": "Returns the address of the current owner."
      },
      "renounceOwnership()": {
        "details": "Leaves the contract without owner. It will not be possible to call `onlyOwner` functions. Can only be called by the current owner. NOTE: Renouncing ownership will leave the contract without an owner, thereby disabling any functionality that is only available to the owner."
      },
      "transferOwnership(address)": {
        "details": "Transfers ownership of the contract to a new account (`newOwner`). Can only be called by the current owner."
      }
    },
    "version": 1
  },
  "userdoc": {
    "kind": "user",
    "methods": {},
    "version": 1
  },
  "storageLayout": {
    "storage": [
      {
        "astId": 139,
        "contract": "contracts/Arbitrage.sol:Arbitrage",
        "label": "_initialized",
        "offset": 0,
        "slot": "0",
        "type": "t_uint8"
      },
      {
        "astId": 142,
        "contract": "contracts/Arbitrage.sol:Arbitrage",
        "label": "_initializing",
        "offset": 1,
        "slot": "0",
        "type": "t_bool"
      },
      {
        "astId": 1171,
        "contract": "contracts/Arbitrage.sol:Arbitrage",
        "label": "__gap",
        "offset": 0,
        "slot": "1",
        "type": "t_array(t_uint256)50_storage"
      },
      {
        "astId": 11,
        "contract": "contracts/Arbitrage.sol:Arbitrage",
        "label": "_owner",
        "offset": 0,
        "slot": "51",
        "type": "t_address"
      },
      {
        "astId": 131,
        "contract": "contracts/Arbitrage.sol:Arbitrage",
        "label": "__gap",
        "offset": 0,
        "slot": "52",
        "type": "t_array(t_uint256)49_storage"
      },
      {
        "astId": 6432,
        "contract": "contracts/Arbitrage.sol:Arbitrage",
        "label": "flashloan",
        "offset": 0,
        "slot": "101",
        "type": "t_address"
      }
    ],
    "types": {
      "t_address": {
        "encoding": "inplace",
        "label": "address",
        "numberOfBytes": "20"
      },
      "t_array(t_uint256)49_storage": {
        "base": "t_uint256",
        "encoding": "inplace",
        "label": "uint256[49]",
        "numberOfBytes": "1568"
      },
      "t_array(t_uint256)50_storage": {
        "base": "t_uint256",
        "encoding": "inplace",
        "label": "uint256[50]",
        "numberOfBytes": "1600"
      },
      "t_bool": {
        "encoding": "inplace",
        "label": "bool",
        "numberOfBytes": "1"
      },
      "t_uint256": {
        "encoding": "inplace",
        "label": "uint256",
        "numberOfBytes": "32"
      },
      "t_uint8": {
        "encoding": "inplace",
        "label": "uint8",
        "numberOfBytes": "1"
      }
    }
  }
}