{
  "address": "0x3459C73e31F5Aa5CD632456334d21d544014FB85",
  "abi": [
    {
      "inputs": [],
      "stateMutability": "nonpayable",
      "type": "constructor"
    },
    {
      "anonymous": false,
      "inputs": [
        {
          "indexed": true,
          "internalType": "address",
          "name": "tokenStart",
          "type": "address"
        },
        {
          "indexed": true,
          "internalType": "address",
          "name": "tokenLast",
          "type": "address"
        },
        {
          "indexed": false,
          "internalType": "uint256",
          "name": "amountIn",
          "type": "uint256"
        },
        {
          "indexed": false,
          "internalType": "uint256",
          "name": "amountOut",
          "type": "uint256"
        }
      ],
      "name": "ExecutedTrade",
      "type": "event"
    },
    {
      "anonymous": false,
      "inputs": [
        {
          "indexed": true,
          "internalType": "bytes32",
          "name": "role",
          "type": "bytes32"
        },
        {
          "indexed": true,
          "internalType": "bytes32",
          "name": "previousAdminRole",
          "type": "bytes32"
        },
        {
          "indexed": true,
          "internalType": "bytes32",
          "name": "newAdminRole",
          "type": "bytes32"
        }
      ],
      "name": "RoleAdminChanged",
      "type": "event"
    },
    {
      "anonymous": false,
      "inputs": [
        {
          "indexed": true,
          "internalType": "bytes32",
          "name": "role",
          "type": "bytes32"
        },
        {
          "indexed": true,
          "internalType": "address",
          "name": "account",
          "type": "address"
        },
        {
          "indexed": true,
          "internalType": "address",
          "name": "sender",
          "type": "address"
        }
      ],
      "name": "RoleGranted",
      "type": "event"
    },
    {
      "anonymous": false,
      "inputs": [
        {
          "indexed": true,
          "internalType": "bytes32",
          "name": "role",
          "type": "bytes32"
        },
        {
          "indexed": true,
          "internalType": "address",
          "name": "account",
          "type": "address"
        },
        {
          "indexed": true,
          "internalType": "address",
          "name": "sender",
          "type": "address"
        }
      ],
      "name": "RoleRevoked",
      "type": "event"
    },
    {
      "inputs": [],
      "name": "AMOUNT_OUT_TOO_LOW",
      "outputs": [
        {
          "internalType": "string",
          "name": "",
          "type": "string"
        }
      ],
      "stateMutability": "view",
      "type": "function"
    },
    {
      "inputs": [],
      "name": "DEFAULT_ADMIN_ROLE",
      "outputs": [
        {
          "internalType": "bytes32",
          "name": "",
          "type": "bytes32"
        }
      ],
      "stateMutability": "view",
      "type": "function"
    },
    {
      "inputs": [],
      "name": "DUPLICATE",
      "outputs": [
        {
          "internalType": "string",
          "name": "",
          "type": "string"
        }
      ],
      "stateMutability": "view",
      "type": "function"
    },
    {
      "inputs": [],
      "name": "EXECUTOR_ROLE",
      "outputs": [
        {
          "internalType": "bytes32",
          "name": "",
          "type": "bytes32"
        }
      ],
      "stateMutability": "view",
      "type": "function"
    },
    {
      "inputs": [],
      "name": "MANAGER_ROLE",
      "outputs": [
        {
          "internalType": "bytes32",
          "name": "",
          "type": "bytes32"
        }
      ],
      "stateMutability": "view",
      "type": "function"
    },
    {
      "inputs": [],
      "name": "MIN_AMOUNT",
      "outputs": [
        {
          "internalType": "uint256",
          "name": "",
          "type": "uint256"
        }
      ],
      "stateMutability": "view",
      "type": "function"
    },
    {
      "inputs": [],
      "name": "NOT_ENOUGH_START_COLLATERAL",
      "outputs": [
        {
          "internalType": "string",
          "name": "",
          "type": "string"
        }
      ],
      "stateMutability": "view",
      "type": "function"
    },
    {
      "inputs": [],
      "name": "SLIPPAGE_TOO_HIGH",
      "outputs": [
        {
          "internalType": "string",
          "name": "",
          "type": "string"
        }
      ],
      "stateMutability": "view",
      "type": "function"
    },
    {
      "inputs": [],
      "name": "ZERO_SLIPPAGE",
      "outputs": [
        {
          "internalType": "string",
          "name": "",
          "type": "string"
        }
      ],
      "stateMutability": "view",
      "type": "function"
    },
    {
      "inputs": [
        {
          "internalType": "bytes",
          "name": "routeData",
          "type": "bytes"
        }
      ],
      "name": "execute",
      "outputs": [
        {
          "internalType": "uint256",
          "name": "realAmountOut",
          "type": "uint256"
        }
      ],
      "stateMutability": "nonpayable",
      "type": "function"
    },
    {
      "inputs": [
        {
          "internalType": "bytes32",
          "name": "role",
          "type": "bytes32"
        }
      ],
      "name": "getRoleAdmin",
      "outputs": [
        {
          "internalType": "bytes32",
          "name": "",
          "type": "bytes32"
        }
      ],
      "stateMutability": "view",
      "type": "function"
    },
    {
      "inputs": [
        {
          "internalType": "bytes32",
          "name": "role",
          "type": "bytes32"
        },
        {
          "internalType": "uint256",
          "name": "index",
          "type": "uint256"
        }
      ],
      "name": "getRoleMember",
      "outputs": [
        {
          "internalType": "address",
          "name": "",
          "type": "address"
        }
      ],
      "stateMutability": "view",
      "type": "function"
    },
    {
      "inputs": [
        {
          "internalType": "bytes32",
          "name": "role",
          "type": "bytes32"
        }
      ],
      "name": "getRoleMemberCount",
      "outputs": [
        {
          "internalType": "uint256",
          "name": "",
          "type": "uint256"
        }
      ],
      "stateMutability": "view",
      "type": "function"
    },
    {
      "inputs": [
        {
          "internalType": "bytes32",
          "name": "role",
          "type": "bytes32"
        },
        {
          "internalType": "address",
          "name": "account",
          "type": "address"
        }
      ],
      "name": "grantRole",
      "outputs": [],
      "stateMutability": "nonpayable",
      "type": "function"
    },
    {
      "inputs": [
        {
          "internalType": "bytes32",
          "name": "role",
          "type": "bytes32"
        },
        {
          "internalType": "address",
          "name": "account",
          "type": "address"
        }
      ],
      "name": "hasRole",
      "outputs": [
        {
          "internalType": "bool",
          "name": "",
          "type": "bool"
        }
      ],
      "stateMutability": "view",
      "type": "function"
    },
    {
      "inputs": [
        {
          "internalType": "bytes32",
          "name": "role",
          "type": "bytes32"
        },
        {
          "internalType": "address",
          "name": "account",
          "type": "address"
        }
      ],
      "name": "renounceRole",
      "outputs": [],
      "stateMutability": "nonpayable",
      "type": "function"
    },
    {
      "inputs": [
        {
          "internalType": "bytes32",
          "name": "role",
          "type": "bytes32"
        },
        {
          "internalType": "address",
          "name": "account",
          "type": "address"
        }
      ],
      "name": "revokeRole",
      "outputs": [],
      "stateMutability": "nonpayable",
      "type": "function"
    },
    {
      "inputs": [
        {
          "internalType": "bytes4",
          "name": "interfaceId",
          "type": "bytes4"
        }
      ],
      "name": "supportsInterface",
      "outputs": [
        {
          "internalType": "bool",
          "name": "",
          "type": "bool"
        }
      ],
      "stateMutability": "view",
      "type": "function"
    }
  ],
  "transactionHash": "0xb33041ef4ec43f5d0047538c35c5ce5e524452590104c5f7067627e5a4d8b9a7",
  "args": [],
  "numDeployments": 1,
  "solcInputHash": "c85d464d7d3a73606ab46fb77a4201a1",
  "bytecode": "0x60806040523480156200001157600080fd5b506200001f60003362000025565b6200017b565b6200003c82826200006860201b6200095b1760201c565b600082815260016020908152604090912062000063918390620009df62000109821b17901c565b505050565b6000828152602081815260408083206001600160a01b038516845290915290205460ff1662000105576000828152602081815260408083206001600160a01b03851684529091529020805460ff19166001179055620000c43390565b6001600160a01b0316816001600160a01b0316837f2f8788117e7eff1d82e926ec794901d17c78024a50270940304540a733656f0d60405160405180910390a45b5050565b600062000120836001600160a01b03841662000129565b90505b92915050565b6000818152600183016020526040812054620001725750815460018181018455600084815260208082209093018490558454848252828601909352604090209190915562000123565b50600062000123565b611e5c806200018b6000396000f3fe608060405234801561001057600080fd5b50600436106101165760003560e01c80639010d07c116100a2578063ca15c87311610071578063ca15c873146102e6578063d547741f146102f9578063ddbcb5fa1461030c578063ec87621c14610315578063ffcc0abd1461033c57600080fd5b80639010d07c1461027857806391d14854146102a3578063a217fddf146102b6578063ae4c51b3146102be57600080fd5b80630e62dc37116100e95780630e62dc37146101c8578063248a9ca3146101fc5780632f2ff15d1461021f57806336568abe1461023457806351e925dd1461024757600080fd5b806301ffc9a71461011b57806304a652331461014357806307bd02651461018057806309c5eabe146101b5575b600080fd5b61012e610129366004611804565b610368565b60405190151581526020015b60405180910390f35b610173604051806040016040528060118152602001700a6d8d2e0e0c2ceca40e8dede40d0d2ced607b1b81525081565b60405161013a9190611852565b6101a77fd8aa0f3194971a2a116679f7c2090f6939c8d4e01a2a8d7e41d55e5351469e6381565b60405190815260200161013a565b6101a76101c3366004611885565b610393565b61017360405180604001604052806015815260200174139bdd08195b9bdd59da0818dbdb1b185d195c985b605a1b81525081565b6101a761020a3660046118f7565b60009081526020819052604090206001015490565b61023261022d366004611925565b61082f565b005b610232610242366004611925565b610859565b61017360405180604001604052806012815260200171416d6f756e74206f757420746f6f206c6f7760701b81525081565b61028b610286366004611955565b6108d7565b6040516001600160a01b03909116815260200161013a565b61012e6102b1366004611925565b6108f6565b6101a7600081565b610173604051806040016040528060098152602001684475706c696361746560b81b81525081565b6101a76102f43660046118f7565b61091f565b610232610307366004611925565b610936565b6101a76103e881565b6101a77f241ecf16d79d0f8dbfb92cbc07fe17840425976cf0667f022fe9877caa831b0881565b6101736040518060400160405280600d81526020016c5a65726f20736c69707061676560981b81525081565b60006001600160e01b03198216635a05180f60e01b148061038d575061038d826109f4565b92915050565b60007fd8aa0f3194971a2a116679f7c2090f6939c8d4e01a2a8d7e41d55e5351469e636103bf81610a29565b60008061040186868080601f016020809104026020016040519081016040528093929190818152602001838380828437600092019190915250610a3692505050565b925092505061040f81610a5c565b60008061041b83610c30565b6040516370a0823160e01b8152306004820152919350915060009081906001600160a01b038416906370a0823190602401602060405180830381865afa158015610469573d6000803e3d6000fd5b505050506040513d601f19601f8201168201806040525081019061048d9190611977565b90506103e881101560405180604001604052806015815260200174139bdd08195b9bdd59da0818dbdb1b185d195c985b605a1b815250906104ea5760405162461bcd60e51b81526004016104e19190611852565b60405180910390fd5b5060015b855181101561070257600086828151811061050b5761050b611990565b60200260200101516000015190506000826001146105cc5787838151811061053557610535611990565b60200260200101516020015160008151811061055357610553611990565b60209081029190910101516040516370a0823160e01b81523060048201526001600160a01b03909116906370a0823190602401602060405180830381865afa1580156105a3573d6000803e3d6000fd5b505050506040513d601f19601f820116820180604052508101906105c79190611977565b6105ce565b835b90506105f8818985815181106105e6576105e6611990565b60200260200101516020015184610cae565b945061064f82828a868151811061061157610611611990565b60200260200101516020015160008151811061062f5761062f611990565b60200260200101516001600160a01b0316610d579092919063ffffffff16565b816001600160a01b03166338ed17398260008b878151811061067357610673611990565b6020026020010151602001513042600161068d91906119bc565b6040518663ffffffff1660e01b81526004016106ad959493929190611a13565b6000604051808303816000875af11580156106cc573d6000803e3d6000fd5b505050506040513d6000823e601f3d908101601f191682016040526106f49190810190611ae3565b5082600101925050506104ee565b50604080518082019091526012815271416d6f756e74206f757420746f6f206c6f7760701b60208201528683101561074d5760405162461bcd60e51b81526004016104e19190611852565b506040516370a0823160e01b81523060048201526001600160a01b038516906370a0823190602401602060405180830381865afa158015610792573d6000803e3d6000fd5b505050506040513d601f19601f820116820180604052508101906107b69190611977565b97506107cc6001600160a01b038516338a610e9f565b836001600160a01b0316836001600160a01b03167f69734cd609968d6d709fe0beb17dcdd45e09bf09395c5a726890b230aec5c740838b60405161081a929190918252602082015260400190565b60405180910390a35050505050505092915050565b60008281526020819052604090206001015461084a81610a29565b6108548383610ecf565b505050565b6001600160a01b03811633146108c95760405162461bcd60e51b815260206004820152602f60248201527f416363657373436f6e74726f6c3a2063616e206f6e6c792072656e6f756e636560448201526e103937b632b9903337b91039b2b63360891b60648201526084016104e1565b6108d38282610ef1565b5050565b60008281526001602052604081206108ef9083610f13565b9392505050565b6000918252602082815260408084206001600160a01b0393909316845291905290205460ff1690565b600081815260016020526040812061038d90610f1f565b60008281526020819052604090206001015461095181610a29565b6108548383610ef1565b61096582826108f6565b6108d3576000828152602081815260408083206001600160a01b03851684529091529020805460ff1916600117905561099b3390565b6001600160a01b0316816001600160a01b0316837f2f8788117e7eff1d82e926ec794901d17c78024a50270940304540a733656f0d60405160405180910390a45050565b60006108ef836001600160a01b038416610f29565b60006001600160e01b03198216637965db0b60e01b148061038d57506301ffc9a760e01b6001600160e01b031983161461038d565b610a338133610f78565b50565b600080606083806020019051810190610a4f9190611b6e565b9196909550909350915050565b805160408051808201909152600b81526a24b73b30b634b2103632b760a91b602082015290610a9e5760405162461bcd60e51b81526004016104e19190611852565b50610ac481600081518110610ab557610ab5611990565b60200260200101516000610fd1565b60015b8151811015610bc457610af3828281518110610ae557610ae5611990565b602002602001015182610fd1565b610b1f82610b02600184611cea565b81518110610b1257610b12611990565b602002602001015161115f565b6001600160a01b0316828281518110610b3a57610b3a611990565b602002602001015160200151600081518110610b5857610b58611990565b60200260200101516001600160a01b03161460405180604001604052806012815260200171496e636f6e73697374656e7420726f75746560701b81525090610bb35760405162461bcd60e51b81526004016104e19190611852565b50610bbd81611cfd565b9050610ac7565b50600080610bd183611194565b91509150806001600160a01b0316826001600160a01b031614604051806040016040528060098152602001684e6f74206379636c6560b81b81525090610c2a5760405162461bcd60e51b81526004016104e19190611852565b50505050565b60008082600081518110610c4657610c46611990565b602002602001015160200151600081518110610c6457610c64611990565b6020026020010151915082600081518110610c8157610c81611990565b602002602001015160200151600181518110610c9f57610c9f611990565b60200260200101519050915091565b600080826001600160a01b031663d06ca61f86866040518363ffffffff1660e01b8152600401610cdf929190611d16565b600060405180830381865afa158015610cfc573d6000803e3d6000fd5b505050506040513d6000823e601f3d908101601f19168201604052610d249190810190611ae3565b90508060018251610d359190611cea565b81518110610d4557610d45611990565b60200260200101519150509392505050565b801580610dd15750604051636eb1769f60e11b81523060048201526001600160a01b03838116602483015284169063dd62ed3e90604401602060405180830381865afa158015610dab573d6000803e3d6000fd5b505050506040513d601f19601f82011682018060405250810190610dcf9190611977565b155b610e3c5760405162461bcd60e51b815260206004820152603660248201527f5361666545524332303a20617070726f76652066726f6d206e6f6e2d7a65726f60448201527520746f206e6f6e2d7a65726f20616c6c6f77616e636560501b60648201526084016104e1565b6040516001600160a01b03831660248201526044810182905261085490849063095ea7b360e01b906064015b60408051601f198184030181529190526020810180516001600160e01b03166001600160e01b03199093169290921790915261125a565b6040516001600160a01b03831660248201526044810182905261085490849063a9059cbb60e01b90606401610e68565b610ed9828261095b565b600082815260016020526040902061085490826109df565b610efb828261132f565b60008281526001602052604090206108549082611394565b60006108ef83836113a9565b600061038d825490565b6000818152600183016020526040812054610f705750815460018181018455600084815260208082209093018490558454848252828601909352604090209190915561038d565b50600061038d565b610f8282826108f6565b6108d357610f8f816113d3565b610f9a8360206113e5565b604051602001610fab929190611d2f565b60408051601f198184030181529082905262461bcd60e51b82526104e191600401611852565b8060000361102b578160200151516002146040518060400160405280600c81526020016b092dcecc2d8d2c840e0c2e8d60a31b815250906110255760405162461bcd60e51b81526004016104e19190611852565b5061107a565b600282602001515110156040518060400160405280600c81526020016b092dcecc2d8d2c840e0c2e8d60a31b815250906110785760405162461bcd60e51b81526004016104e19190611852565b505b815160408051808201909152600c81526b5a65726f206164647265737360a01b6020820152906001600160a01b03166110c65760405162461bcd60e51b81526004016104e19190611852565b5060005b8260200151518110156108545760006001600160a01b0316836020015182815181106110f8576110f8611990565b60200260200101516001600160a01b031614156040518060400160405280600c81526020016b5a65726f206164647265737360a01b8152509061114e5760405162461bcd60e51b81526004016104e19190611852565b5061115881611cfd565b90506110ca565b60208101518051600091611174600183611cea565b8151811061118457611184611990565b6020026020010151915050919050565b8051600090819081846111a8600184611cea565b815181106111b8576111b8611990565b602002602001015160200151519050846000815181106111da576111da611990565b6020026020010151602001516000815181106111f8576111f8611990565b60200260200101518560018461120e9190611cea565b8151811061121e5761121e611990565b6020026020010151602001516001836112379190611cea565b8151811061124757611247611990565b6020026020010151935093505050915091565b60006112af826040518060400160405280602081526020017f5361666545524332303a206c6f772d6c6576656c2063616c6c206661696c6564815250856001600160a01b03166115819092919063ffffffff16565b90508051600014806112d05750808060200190518101906112d09190611da4565b6108545760405162461bcd60e51b815260206004820152602a60248201527f5361666545524332303a204552433230206f7065726174696f6e20646964206e6044820152691bdd081cdd58d8d9595960b21b60648201526084016104e1565b61133982826108f6565b156108d3576000828152602081815260408083206001600160a01b0385168085529252808320805460ff1916905551339285917ff6391f5c32d9c69d2a47ea670b442974b53935d1edc7fd64eb21e047a839171b9190a45050565b60006108ef836001600160a01b038416611598565b60008260000182815481106113c0576113c0611990565b9060005260206000200154905092915050565b606061038d6001600160a01b03831660145b606060006113f4836002611dc6565b6113ff9060026119bc565b67ffffffffffffffff81111561141757611417611a4f565b6040519080825280601f01601f191660200182016040528015611441576020820181803683370190505b509050600360fc1b8160008151811061145c5761145c611990565b60200101906001600160f81b031916908160001a905350600f60fb1b8160018151811061148b5761148b611990565b60200101906001600160f81b031916908160001a90535060006114af846002611dc6565b6114ba9060016119bc565b90505b6001811115611532576f181899199a1a9b1b9c1cb0b131b232b360811b85600f16601081106114ee576114ee611990565b1a60f81b82828151811061150457611504611990565b60200101906001600160f81b031916908160001a90535060049490941c9361152b81611ddd565b90506114bd565b5083156108ef5760405162461bcd60e51b815260206004820181905260248201527f537472696e67733a20686578206c656e67746820696e73756666696369656e7460448201526064016104e1565b6060611590848460008561168b565b949350505050565b600081815260018301602052604081205480156116815760006115bc600183611cea565b85549091506000906115d090600190611cea565b90508181146116355760008660000182815481106115f0576115f0611990565b906000526020600020015490508087600001848154811061161357611613611990565b6000918252602080832090910192909255918252600188019052604090208390555b855486908061164657611646611df4565b60019003818190600052602060002001600090559055856001016000868152602001908152602001600020600090556001935050505061038d565b600091505061038d565b6060824710156116ec5760405162461bcd60e51b815260206004820152602660248201527f416464726573733a20696e73756666696369656e742062616c616e636520666f6044820152651c8818d85b1b60d21b60648201526084016104e1565b600080866001600160a01b031685876040516117089190611e0a565b60006040518083038185875af1925050503d8060008114611745576040519150601f19603f3d011682016040523d82523d6000602084013e61174a565b606091505b509150915061175b87838387611766565b979650505050505050565b606083156117d55782516000036117ce576001600160a01b0385163b6117ce5760405162461bcd60e51b815260206004820152601d60248201527f416464726573733a2063616c6c20746f206e6f6e2d636f6e747261637400000060448201526064016104e1565b5081611590565b61159083838151156117ea5781518083602001fd5b8060405162461bcd60e51b81526004016104e19190611852565b60006020828403121561181657600080fd5b81356001600160e01b0319811681146108ef57600080fd5b60005b83811015611849578181015183820152602001611831565b50506000910152565b602081526000825180602084015261187181604085016020870161182e565b601f01601f19169190910160400192915050565b6000806020838503121561189857600080fd5b823567ffffffffffffffff808211156118b057600080fd5b818501915085601f8301126118c457600080fd5b8135818111156118d357600080fd5b8660208285010111156118e557600080fd5b60209290920196919550909350505050565b60006020828403121561190957600080fd5b5035919050565b6001600160a01b0381168114610a3357600080fd5b6000806040838503121561193857600080fd5b82359150602083013561194a81611910565b809150509250929050565b6000806040838503121561196857600080fd5b50508035926020909101359150565b60006020828403121561198957600080fd5b5051919050565b634e487b7160e01b600052603260045260246000fd5b634e487b7160e01b600052601160045260246000fd5b8082018082111561038d5761038d6119a6565b600081518084526020808501945080840160005b83811015611a085781516001600160a01b0316875295820195908201906001016119e3565b509495945050505050565b85815284602082015260a060408201526000611a3260a08301866119cf565b6001600160a01b0394909416606083015250608001529392505050565b634e487b7160e01b600052604160045260246000fd5b6040805190810167ffffffffffffffff81118282101715611a8857611a88611a4f565b60405290565b604051601f8201601f1916810167ffffffffffffffff81118282101715611ab757611ab7611a4f565b604052919050565b600067ffffffffffffffff821115611ad957611ad9611a4f565b5060051b60200190565b60006020808385031215611af657600080fd5b825167ffffffffffffffff811115611b0d57600080fd5b8301601f81018513611b1e57600080fd5b8051611b31611b2c82611abf565b611a8e565b81815260059190911b82018301908381019087831115611b5057600080fd5b928401925b8284101561175b57835182529284019290840190611b55565b600080600060608486031215611b8357600080fd5b8351925060208401519150604084015167ffffffffffffffff80821115611ba957600080fd5b818601915086601f830112611bbd57600080fd5b8151611bcb611b2c82611abf565b8082825260208201915060208360051b860101925089831115611bed57600080fd5b602085015b83811015611cda57805185811115611c0957600080fd5b86016040818d03601f19011215611c1f57600080fd5b611c27611a65565b6020820151611c3581611910565b8152604082015187811115611c4957600080fd5b8083019250508c603f830112611c5e57600080fd5b6020820151611c6f611b2c82611abf565b81815260059190911b83016040019060208101908f831115611c9057600080fd5b6040850194505b82851015611cbb578451611caa81611910565b825260209485019490910190611c97565b8060208501525050508085525050602083019250602081019050611bf2565b5080955050505050509250925092565b8181038181111561038d5761038d6119a6565b600060018201611d0f57611d0f6119a6565b5060010190565b82815260406020820152600061159060408301846119cf565b7f416363657373436f6e74726f6c3a206163636f756e7420000000000000000000815260008351611d6781601785016020880161182e565b7001034b99036b4b9b9b4b733903937b6329607d1b6017918401918201528351611d9881602884016020880161182e565b01602801949350505050565b600060208284031215611db657600080fd5b815180151581146108ef57600080fd5b808202811582820484141761038d5761038d6119a6565b600081611dec57611dec6119a6565b506000190190565b634e487b7160e01b600052603160045260246000fd5b60008251611e1c81846020870161182e565b919091019291505056fea2646970667358221220922adf3343955774b7b158ac8a3dfc8ec194f85cc4c10bf3b4f10bedf738dcff64736f6c63430008120033",
  "devdoc": {
    "events": {
      "RoleAdminChanged(bytes32,bytes32,bytes32)": {
        "details": "Emitted when `newAdminRole` is set as ``role``'s admin role, replacing `previousAdminRole` `DEFAULT_ADMIN_ROLE` is the starting admin for all roles, despite {RoleAdminChanged} not being emitted signaling this. _Available since v3.1._"
      },
      "RoleGranted(bytes32,address,address)": {
        "details": "Emitted when `account` is granted `role`. `sender` is the account that originated the contract call, an admin role bearer except when using {AccessControl-_setupRole}."
      },
      "RoleRevoked(bytes32,address,address)": {
        "details": "Emitted when `account` is revoked `role`. `sender` is the account that originated the contract call:   - if using `revokeRole`, it is the admin role bearer   - if using `renounceRole`, it is the role bearer (i.e. `account`)"
      }
    },
    "kind": "dev",
    "methods": {
      "execute(bytes)": {
        "details": "No reentrancy possible, caller is the EXECUTOR_ROLE only (arbitrage contract)"
      },
      "getRoleAdmin(bytes32)": {
        "details": "Returns the admin role that controls `role`. See {grantRole} and {revokeRole}. To change a role's admin, use {_setRoleAdmin}."
      },
      "getRoleMember(bytes32,uint256)": {
        "details": "Returns one of the accounts that have `role`. `index` must be a value between 0 and {getRoleMemberCount}, non-inclusive. Role bearers are not sorted in any particular way, and their ordering may change at any point. WARNING: When using {getRoleMember} and {getRoleMemberCount}, make sure you perform all queries on the same block. See the following https://forum.openzeppelin.com/t/iterating-over-elements-on-enumerableset-in-openzeppelin-contracts/2296[forum post] for more information."
      },
      "getRoleMemberCount(bytes32)": {
        "details": "Returns the number of accounts that have `role`. Can be used together with {getRoleMember} to enumerate all bearers of a role."
      },
      "grantRole(bytes32,address)": {
        "details": "Grants `role` to `account`. If `account` had not been already granted `role`, emits a {RoleGranted} event. Requirements: - the caller must have ``role``'s admin role. May emit a {RoleGranted} event."
      },
      "hasRole(bytes32,address)": {
        "details": "Returns `true` if `account` has been granted `role`."
      },
      "renounceRole(bytes32,address)": {
        "details": "Revokes `role` from the calling account. Roles are often managed via {grantRole} and {revokeRole}: this function's purpose is to provide a mechanism for accounts to lose their privileges if they are compromised (such as when a trusted device is misplaced). If the calling account had been revoked `role`, emits a {RoleRevoked} event. Requirements: - the caller must be `account`. May emit a {RoleRevoked} event."
      },
      "revokeRole(bytes32,address)": {
        "details": "Revokes `role` from `account`. If `account` had been granted `role`, emits a {RoleRevoked} event. Requirements: - the caller must have ``role``'s admin role. May emit a {RoleRevoked} event."
      },
      "supportsInterface(bytes4)": {
        "details": "See {IERC165-supportsInterface}."
      }
    },
    "version": 1
  },
  "userdoc": {
    "kind": "user",
    "methods": {
      "constructor": {
        "notice": "min swap amount"
      }
    },
    "version": 1
  },
  "storageLayout": {
    "storage": [
      {
        "astId": 1197,
        "contract": "contracts/Trader.sol:UniswapV2Trader",
        "label": "_roles",
        "offset": 0,
        "slot": "0",
        "type": "t_mapping(t_bytes32,t_struct(RoleData)1192_storage)"
      },
      {
        "astId": 1507,
        "contract": "contracts/Trader.sol:UniswapV2Trader",
        "label": "_roleMembers",
        "offset": 0,
        "slot": "1",
        "type": "t_mapping(t_bytes32,t_struct(AddressSet)4913_storage)"
      }
    ],
    "types": {
      "t_address": {
        "encoding": "inplace",
        "label": "address",
        "numberOfBytes": "20"
      },
      "t_array(t_bytes32)dyn_storage": {
        "base": "t_bytes32",
        "encoding": "dynamic_array",
        "label": "bytes32[]",
        "numberOfBytes": "32"
      },
      "t_bool": {
        "encoding": "inplace",
        "label": "bool",
        "numberOfBytes": "1"
      },
      "t_bytes32": {
        "encoding": "inplace",
        "label": "bytes32",
        "numberOfBytes": "32"
      },
      "t_mapping(t_address,t_bool)": {
        "encoding": "mapping",
        "key": "t_address",
        "label": "mapping(address => bool)",
        "numberOfBytes": "32",
        "value": "t_bool"
      },
      "t_mapping(t_bytes32,t_struct(AddressSet)4913_storage)": {
        "encoding": "mapping",
        "key": "t_bytes32",
        "label": "mapping(bytes32 => struct EnumerableSet.AddressSet)",
        "numberOfBytes": "32",
        "value": "t_struct(AddressSet)4913_storage"
      },
      "t_mapping(t_bytes32,t_struct(RoleData)1192_storage)": {
        "encoding": "mapping",
        "key": "t_bytes32",
        "label": "mapping(bytes32 => struct AccessControl.RoleData)",
        "numberOfBytes": "32",
        "value": "t_struct(RoleData)1192_storage"
      },
      "t_mapping(t_bytes32,t_uint256)": {
        "encoding": "mapping",
        "key": "t_bytes32",
        "label": "mapping(bytes32 => uint256)",
        "numberOfBytes": "32",
        "value": "t_uint256"
      },
      "t_struct(AddressSet)4913_storage": {
        "encoding": "inplace",
        "label": "struct EnumerableSet.AddressSet",
        "members": [
          {
            "astId": 4912,
            "contract": "contracts/Trader.sol:UniswapV2Trader",
            "label": "_inner",
            "offset": 0,
            "slot": "0",
            "type": "t_struct(Set)4598_storage"
          }
        ],
        "numberOfBytes": "64"
      },
      "t_struct(RoleData)1192_storage": {
        "encoding": "inplace",
        "label": "struct AccessControl.RoleData",
        "members": [
          {
            "astId": 1189,
            "contract": "contracts/Trader.sol:UniswapV2Trader",
            "label": "members",
            "offset": 0,
            "slot": "0",
            "type": "t_mapping(t_address,t_bool)"
          },
          {
            "astId": 1191,
            "contract": "contracts/Trader.sol:UniswapV2Trader",
            "label": "adminRole",
            "offset": 0,
            "slot": "1",
            "type": "t_bytes32"
          }
        ],
        "numberOfBytes": "64"
      },
      "t_struct(Set)4598_storage": {
        "encoding": "inplace",
        "label": "struct EnumerableSet.Set",
        "members": [
          {
            "astId": 4593,
            "contract": "contracts/Trader.sol:UniswapV2Trader",
            "label": "_values",
            "offset": 0,
            "slot": "0",
            "type": "t_array(t_bytes32)dyn_storage"
          },
          {
            "astId": 4597,
            "contract": "contracts/Trader.sol:UniswapV2Trader",
            "label": "_indexes",
            "offset": 0,
            "slot": "1",
            "type": "t_mapping(t_bytes32,t_uint256)"
          }
        ],
        "numberOfBytes": "64"
      },
      "t_uint256": {
        "encoding": "inplace",
        "label": "uint256",
        "numberOfBytes": "32"
      }
    }
  }
}